:100000000C9462000C948A000C948A000C948A0070
:100010000C948A000C948A000C948A000C948A0038
:100020000C948A000C948A000C948A000C948A0028
:100030000C948A000C948A000C948A000C948A0018
:100040000C9466020C948A000C94D6030C9424043D
:100050000C948A000C948A000C948A000C948A00F8
:100060000C948A000C948A000000000024002700F1
:100070002A0000000000250028002B0000000000DE
:1000800023002600290004040404040404040202DA
:100090000202020203030303030301020408102007
:1000A0004080010204081020010204081020000012
:1000B0000007000201000003040600000000000029
:1000C0000000900511241FBECFEFD8E0DEBFCDBFEA
:1000D00011E0A0E0B1E0E0E3FDE002C005900D9288
:1000E000A636B107D9F712E0A6E6B1E001C01D922D
:1000F000AF31B107E1F710E0C4ECD0E004C02297C3
:10010000FE010E949206C23CD107C9F70E94E60593
:100110000C9496060C9400008DEF91E00E94E6048A
:10012000181619068CF48DEF91E00E941705909334
:1001300067018093660110926901109268018091B5
:10014000530161E00E9481032091660130916701B3
:100150002133310501F58091430161E00E94810363
:100160008091450160E00E9481038091470160E039
:100170000E9481038091490161E00E948103809186
:10018000680190916901892B09F069C18DEF91E0B7
:1001900060E071E0A9C02233310501F5809143018F
:1001A00061E00E9481038091450160E00E9481032B
:1001B0008091470161E00E9481038091490160E0E4
:1001C0000E9481038091680190916901892B09F057
:1001D00062C08DEF91E06CE071E055C023333105D2
:1001E00031F080916A0190916B01019759F58091EE
:1001F000430160E00E9481038091450160E00E941C
:1002000081038091470160E00E9481038091490150
:1002100060E00E9481038091680190916901892BBF
:1002200061F48DEF91E066E171E00E945B0681E090
:1002300090E0909369018093680110926B01109295
:100240006A0108952433310569F58091430160E026
:100250000E9481038091450161E00E9481038091A9
:10026000470160E00E9481038091490161E00E94A2
:1002700081038091680190916901892B61F48DEF70
:1002800091E06CE171E00E945B0681E090E0909368
:1002900069018093680164E670E080E090E00E946C
:1002A000AE02A5C02533310541F58091430160E0E0
:1002B0000E9481038091450161E00E948103809149
:1002C000470161E00E9481038091490160E00E9442
:1002D00081038091680190916901892B09F0BFC069
:1002E0008DEF91E067E271E00E945B0681E090E0B3
:1002F000909369018093680108952633310529F5AB
:1003000080914B0161E00E94810380914D0160E08A
:100310000E9481038091680190916901892B61F4A9
:100320008DEF91E060E371E00E945B0681E090E078
:10033000909369018093680164E670E080E090E04A
:100340000E94AE0280914B014FC02733310529F541
:1003500080914B0160E00E94810380914D0161E03A
:100360000E9481038091680190916901892B61F459
:100370008DEF91E063E371E00E945B0681E090E025
:10038000909369018093680164E670E080E090E0FA
:100390000E94AE0280914D0127C028333105A1F59E
:1003A00080914F0161E00E9481038091510160E0E2
:1003B0000E9481038091680190916901892B61F409
:1003C0008DEF91E068E371E00E945B0681E090E0D0
:1003D000909369018093680164E670E080E090E0AA
:1003E0000E94AE0280914F0160E00E94810383E091
:1003F00090E0909367018093660181E090E0909394
:100400006B0180936A0108952933310541F580918C
:100410004F0160E00E9481038091510161E00E94E0
:1004200081038091680190916901892B61F48DEFBE
:1004300091E06DE371E00E945B0681E090E09093B3
:1004400069018093680183E090E090936701809355
:10045000660181E090E090936B0180936A010895BA
:100460008091430161E00E9442038091450161E077
:100470000E9442038091470161E00E944203809103
:10048000490161E00E94420380914B0161E00E94BA
:10049000420380914D0161E00E94420380914F012F
:1004A00061E00E9442038091510161E00E94420399
:1004B0008DEF91E040E855E260E070E00E945F045B
:1004C0008091530161E00E94420308951F920F92B0
:1004D0000FB60F9211242F933F938F939F93AF9357
:1004E000BF938091700190917101A0917201B091C0
:1004F0007301309174010196A11DB11D232F2D5F51
:100500002D3720F02D570196A11DB11D20937401A8
:100510008093700190937101A0937201B093730165
:1005200080916C0190916D01A0916E01B0916F016D
:100530000196A11DB11D80936C0190936D01A09354
:100540006E01B0936F01BF91AF919F918F913F91D9
:100550002F910F900FBE0F901F9018959B01AC012B
:100560007FB7F89480916C0190916D01A0916E011C
:10057000B0916F0166B5A89B05C06F3F19F0019659
:10058000A11DB11D7FBFBA2FA92F982F8827860FD5
:10059000911DA11DB11D62E0880F991FAA1FBB1FED
:1005A0006A95D1F7BC012DC0FFB7F89480916C011A
:1005B00090916D01A0916E01B0916F01E6B5A89B7D
:1005C00005C0EF3F19F00196A11DB11DFFBFBA2F65
:1005D000A92F982F88278E0F911DA11DB11DE2E034
:1005E000880F991FAA1FBB1FEA95D1F7861B970B8F
:1005F000885E9340C8F221503040404050406851DE
:100600007C4F211531054105510571F60895789407
:1006100084B5826084BD84B5816084BD85B5826007
:1006200085BD85B5816085BDEEE6F0E080818160A5
:100630008083E1E8F0E010828081826080838081A5
:1006400081608083E0E8F0E0808181608083E1EB7D
:10065000F0E0808184608083E0EBF0E08081816065
:100660008083EAE7F0E0808184608083808182601B
:100670008083808181608083808180688083109204
:10068000C1000895CF93DF93482F50E0CA018656EA
:100690009F4FFC0134914A575F4FFA0184918823A0
:1006A00069F190E0880F991FFC01E859FF4FA5916F
:1006B000B491FC01EE58FF4FC591D491662351F4DB
:1006C0002FB7F8948C91932F909589238C938881E0
:1006D00089230BC0623061F42FB7F8948C91932F6B
:1006E000909589238C938881832B88832FBF06C0A4
:1006F0009FB7F8948C91832B8C939FBFDF91CF9100
:100700000895482F50E0CA0182559F4FFC01249163
:10071000CA0186569F4FFC0194914A575F4FFA01D8
:100720003491332309F440C0222351F1233071F076
:10073000243028F42130A1F0223011F514C02630E5
:10074000B1F02730C1F02430D9F404C0809180008A
:100750008F7703C0809180008F7D8093800010C0D0
:1007600084B58F7702C084B58F7D84BD09C0809128
:10077000B0008F7703C08091B0008F7D8093B00070
:10078000E32FF0E0EE0FFF1FEE58FF4FA591B4915D
:100790002FB7F894662321F48C919095892302C099
:1007A0008C91892B8C932FBF089508951F920F92DF
:1007B0000FB60F9211242F933F934F938F939F93D4
:1007C000EF93FF938091C00082FD1DC04091C60051
:1007D0002091B5013091B6012F5F3F4F2F733070DC
:1007E0008091B7019091B8012817390771F0E09115
:1007F000B501F091B601EB58FE4F40833093B6013E
:100800002093B50102C08091C600FF91EF919F91A6
:100810008F914F913F912F910F900FBE0F901F908E
:100820001895E0910902F0910A02E05CFF4F819176
:10083000919120813181821B930B8F739070892B52
:1008400011F00E94D50308951F920F920FB60F92D8
:1008500011242F933F938F939F93EF93FF932091B6
:10086000F9013091FA018091FB019091FC01281768
:10087000390731F48091C1008F7D8093C10014C08D
:10088000E091FB01F091FC01E754FE4F2081809143
:10089000FB019091FC0101968F7390709093FC0185
:1008A0008093FB012093C600FF91EF919F918F9160
:1008B0003F912F910F900FBE0F901F901895AF9200
:1008C000BF92DF92EF92FF920F931F93CF93DF932C
:1008D000EC017A018B01DD24403081EE580780E085
:1008E000680780E0780711F0DD24D39491E0A92E09
:1008F000B12CEC89FD89DD2069F0C50108A002C09A
:10090000880F991F0A94E2F7808360E079E08DE315
:1009100090E005C0108260E874E88EE190E0A801E4
:1009200097010E946E06215030404040504056953D
:1009300047953795279580E12030380720F0DD2056
:1009400011F0DD24D6CFE889F9893083EA89FB8963
:10095000208319A2EE89FF89408121E030E0C9019E
:100960000C8C02C0880F991F0A94E2F7482B408331
:10097000EE89FF894081C9010D8C02C0880F991F43
:100980000A94E2F7482B4083EE89FF894081C90130
:100990000E8C02C0880F991F0A94E2F7482B4083FF
:1009A000EE89FF8980810F8C02C0220F331F0A94C9
:1009B000E2F7209528232083DF91CF911F910F919B
:1009C000FF90EF90DF90BF90AF900895DC011C96F0
:1009D000ED91FC911D97E05CFF4F21913191808159
:1009E0009181281B390B2F733070C9010895DC01E8
:1009F0001C96ED91FC911D97E05CFF4F20813181A9
:100A0000E054F040DF01AE5BBF4F8D919C91119798
:100A10002817390719F42FEF3FEF07C08D919C91EC
:100A2000E80FF91F8081282F30E0C9010895DC010B
:100A30001C96ED91FC911D97E05CFF4F2081318168
:100A4000E054F040DF01AE5BBF4F8D919C91119758
:100A50002817390719F42FEF3FEF10C08D919C91A3
:100A60001197E80FF91F20818D919C9111970196A4
:100A70008F73907011969C938E9330E0C901089506
:100A8000DC0191968C919197882339F05496ED91E1
:100A9000FC915597808186FFF9CF91961C9208951D
:100AA000CF93DF93EC01EE85FF85E05CFF4F208163
:100AB0003181E054F0402F5F3F4F2F733070DF01E2
:100AC000AE5BBF4F8D919C91119728173907D1F3D9
:100AD000E05CFF4F80819181E054F040E80FF91F06
:100AE0006083EE85FF85E05CFF4F31832083EE89D4
:100AF000FF89208181E090E00F8C02C0880F991F50
:100B00000A94E2F7282B208381E089A3EC89FD89F0
:100B100080818064808381E090E0DF91CF910895AF
:100B2000109200021092FF0188EE93E0A0E0B0E086
:100B30008093010290930202A0930302B0930402F7
:100B400089E591E09093FE018093FD0185E791E0B6
:100B500090930A028093090289EB91E090930C0232
:100B600080930B0285EC90E090930E0280930D022F
:100B700084EC90E09093100280930F0280EC90E060
:100B8000909312028093110281EC90E090931402F2
:100B90008093130282EC90E09093160280931502EA
:100BA00086EC90E0909318028093170284E0809383
:100BB000190283E080931A0287E080931B0285E08C
:100BC00080931C0281E080931D020895CF93DF93F0
:100BD0000E9407030E943002C1E1D4E00E948C0011
:100BE0002097E1F30E941104F9CFCF92DF92EF92A8
:100BF000FF920F931F93CF93DF937C016B018A01C8
:100C0000C0E0D0E00FC0D6016D916D01D701ED912C
:100C1000FC910190F081E02DC7010995C80FD91F03
:100C2000015010400115110571F7CE01DF91CF91F0
:100C30001F910F91FF90EF90DF90CF900895EF926A
:100C4000FF920F931F938C01DC01ED91FC910190B9
:100C5000F081E02D6DE009957C01D801ED91FC91CA
:100C60000190F081E02DC8016AE009959C012E0DEC
:100C70003F1DC9011F910F91FF90EF900895CF93F1
:100C8000DF93EC016115710519F420E030E00FC02D
:100C9000DB010D900020E9F71197A61BB70BE88147
:100CA000F9810280F381E02DAD0109959C01C90114
:100CB000DF91CF910895EF92FF920F931F937C01E4
:100CC0000E943F068C01C7010E941F06080F191FD2
:100CD000C8011F910F91FF90EF900895A1E21A2E85
:100CE000AA1BBB1BFD010DC0AA1FBB1FEE1FFF1FD0
:100CF000A217B307E407F50720F0A21BB30BE40B20
:100D0000F50B661F771F881F991F1A9469F7609566
:100D10007095809590959B01AC01BD01CF01089520
:100D2000EE0FFF1F0590F491E02D0994F894FFCF8A
:100D3000476F20466F727761726421005475726E3E
:100D4000204C6566740053544F5021005475726EE8
:100D50002052696768740052657665727365210078
:100D6000557000446F776E004F70656E00436C6F76
:100D700073650009000A000B000C0005000600075F
:100D80000008000D00000000005005F505E60417FE
:060D900005F70440050018
:00000001FF
