:100000000BC024C022C021C020C01FC01EC01DC004
:100010001CC01BC01AC019C011241FBECFEDCDBF1C
:1000200010E0A0E6B0E0EEE6F7E003C0C895319638
:100030000D92A636B107D1F710E0A6E6B0E001C0F8
:100040001D92AD36B107E1F77DC0DACF1F920F9256
:100050000FB60F9211242F933F934F935F936F939B
:100060007F938F939F93AF93BF93EF93FF93CF9320
:10007000DF93CDB7DEB72297DEBFCDBF86E0FED0DF
:1000800010926C0010926B0080916B0090916C004C
:100090002FEF8F3F920751F080916B0090916C0091
:1000A000019690936C0080936B00EECF80913800A6
:1000B000847E8093380081E0E1D019828981833089
:1000C000D0F410926C0010926B0080916B009091B4
:1000D0006C002FEF8F3F920751F080916B00909151
:1000E0006C00019690936C0080936B00EECF898139
:1000F0008F5F8983E3CF83E09AD18A8390916900EF
:100100008A81891708F4F7CF85E0B8D080915A002A
:10011000806480935A002296F894DEBFCDBFDF91B1
:10012000CF91FF91EF91BF91AF919F918F917F916F
:100130006F915F914F913F912F910F900FBE0F9054
:100140001F901895CBEDD0E0DEBFCDBF82E08A8353
:100150006AD083D02FD21C821B828B818530E0F441
:100160008C81880F8C838B8162D189838B819927C5
:10017000F92FE82FEA59FF4F90818981891720F0E4
:100180008C8181608C8304C08EEF9C8189238C8359
:100190008B818F5F8B83E1CF8C81843039F08C81B0
:1001A0008E3021F08C818F3109F005C082E066D05D
:1001B00082E08A83D0CF8C818C3021F08C81883092
:1001C00009F004C080E05AD01A82C5CF8C818230F9
:1001D00021F08C81863009F005C084E04FD084E0A6
:1001E0008A83B9CF8C81803139F08C81883121F0BC
:1001F0008C818C3109F005C081E040D081E08A8398
:10020000AACF8C81813039F08C81833021F08C81B0
:10021000873009F005C083E031D083E08A839BCF2B
:100220008A812CD098CFCF93DF93CDB7DEB7809162
:1002300037008F618093370080913A008663809306
:100240003A0080E480935B00809155008360809346
:1002500055007894DF91CF910895CF93DF93CDB778
:10026000DEB780912700806680932700809126006A
:10027000826880932600DF91CF910895CF93DF931A
:10028000CDB7DEB723970FB6F894DEBF0FBECDBF54
:1002900089838981282F33273B832A838A819B8105
:1002A0008330910509F467C02A813B8124303105F0
:1002B00084F48A819B818130910599F12A813B8167
:1002C000223031050CF042C08A819B810097A1F059
:1002D000A5C02A813B812530310509F476C08A8189
:1002E0009B81853091050CF45BC02A813B812630CF
:1002F000310509F47FC092C080913B008D7F8093CF
:100300003B0080913B008B7F80933B0080913B00C2
:10031000806180933B0080913B008F7D80933B0008
:100320007DC080913B008D7F80933B0080913B009E
:10033000846080933B0080913B00806180933B0010
:1003400080913B008F7D80933B0068C080913B0093
:10035000826080933B0080913B008B7F80933B00C9
:1003600080913B00806180933B0080913B008F7DBA
:1003700080933B0053C080913B00826080933B00A0
:1003800080913B008B7F80933B0080913B008F7E70
:1003900080933B0080913B00806280933B003EC095
:1003A00080913B00826080933B0080913B008B7F7B
:1003B00080933B0080913B008F7E80933B00809137
:1003C0003B008F7D80933B0029C080913B008D7F57
:1003D00080933B0080913B008B7F80933B0080911A
:1003E0003B008F7E80933B0080913B008F7D80930C
:1003F0003B0014C080913B008D7F80933B00809137
:100400003B00846080933B0080913B008F7E809313
:100410003B0080913B00806280933B0023960FB6A7
:10042000F894DEBF0FBECDBFDF91CF910895CF937B
:10043000DF93CDB7DEB726970FB6F894DEBF0FBEB9
:10044000CDBF89838981282F33273C832B838B81E0
:100450009C818230910531F12B813C812330310523
:1004600054F48B819C81009789F02B813C81213051
:10047000310591F028C08B819C8183309105C1F0BA
:100480002B813C8124303105C9F01DC0809138009A
:1004900081608093380017C080913800826080931B
:1004A000380011C0809138008460809338000BC000
:1004B0008091380088608093380005C080913800B2
:1004C00080618093380010926C0010926B008091D4
:1004D0006B0090916C0033E18838930750F4809161
:1004E0006B0090916C00019690936C0080936B0070
:1004F000EECF8091260080648093260080912600B4
:10050000992780719070009709F4F8CF80912500A9
:100510008A83809126008061809326008981282F1C
:1005200033273E832D838D819E818230910531F169
:100530002D813E812330310554F48D819E810097B9
:1005400089F02D813E812130310591F028C08D81C7
:100550009E8183309105C1F02D813E81243031058B
:10056000C9F01DC0809138008E7F8093380017C07D
:10057000809138008D7F8093380011C080913800C1
:100580008B7F809338000BC080913800877F8093E9
:10059000380005C0809138008F7E809338008A81B2
:1005A000992726960FB6F894DEBF0FBECDBFDF9118
:1005B000CF910895CF93DF93CDB7DEB763970FB692
:1005C000F894DEBF0FBECDBF85E0FD2FEC2F349633
:1005D00011928A95E9F785E0AC2FBD2F1996E0E6D8
:1005E000F0E001900D928A95E1F71A828A818233B8
:1005F00008F065C01B828B81853008F03FC08B817D
:1006000016DF89838B81282F33278C2F9D2F01960E
:10061000820F931FF92FE82F3896908189818917CF
:1006200068F48B81282F33278C2F9D2F0196820F02
:10063000931FF92FE82F3896898180838B81282F8B
:1006400033278C2F9D2F0196820F931FF92FE82FB0
:10065000339690818981981768F48B81282F3327EE
:100660008C2F9D2F0196820F931FF92FE82F339621
:10067000898180838B818F5F8B83BDCF8A81893114
:10068000D1F482E0FBDD10926C0010926B0080913F
:100690006B0090916C002FEF8F3F920751F080918B
:1006A0006B0090916C00019690936C0080936B00AE
:1006B000EECF85E0E3DD8A818F5F8A8397CF1A8250
:1006C0008A81853008F04AC08A8199278A599F4FCC
:1006D0009F878E878A81282F33278C2F9D2F019605
:1006E000820F931F0896998B888B8A81282F332736
:1006F0008C2F9D2F0196820F931FF92FE82F339691
:100700008081482F55278A81282F33278C2F9D2FB2
:100710000196820F931FF92FE82F38968081992731
:10072000481B590B952F842F9B8B8A8B8A899B8919
:1007300099232CF4EA89FB893196FB8BEA8B8A8911
:100740009B8995958795E889F9892081820FEE85A7
:10075000FF8580838A818F5F8A83B2CF63960FB6CD
:0E076000F894DEBF0FBECDBFDF91CF9108959C
:06076E00FFFFFFFFFF008A
:00000001FF
